{
  "contractName": "CatAdoption",
  "abi": [
    {
      "constant": true,
      "inputs": [
        {
          "internalType": "uint256",
          "name": "",
          "type": "uint256"
        }
      ],
      "name": "adopters",
      "outputs": [
        {
          "internalType": "address",
          "name": "",
          "type": "address"
        }
      ],
      "payable": false,
      "stateMutability": "view",
      "type": "function"
    },
    {
      "constant": false,
      "inputs": [
        {
          "internalType": "uint256",
          "name": "catId",
          "type": "uint256"
        },
        {
          "internalType": "address",
          "name": "adopter",
          "type": "address"
        }
      ],
      "name": "adopt",
      "outputs": [
        {
          "internalType": "uint256",
          "name": "",
          "type": "uint256"
        }
      ],
      "payable": false,
      "stateMutability": "nonpayable",
      "type": "function"
    },
    {
      "constant": true,
      "inputs": [],
      "name": "getAdopters",
      "outputs": [
        {
          "internalType": "address[5]",
          "name": "",
          "type": "address[5]"
        }
      ],
      "payable": false,
      "stateMutability": "view",
      "type": "function"
    }
  ],
  "bytecode": "0x608060405234801561001057600080fd5b506102d9806100206000396000f3fe608060405234801561001057600080fd5b50600436106100415760003560e01c80630689093d146100465780633de4eb17146100a857806343ae80d3146100ee575b600080fd5b6100926004803603604081101561005c57600080fd5b8101908080359060200190929190803573ffffffffffffffffffffffffffffffffffffffff16906020019092919050505061015c565b6040518082815260200191505060405180910390f35b6100b06101ce565b6040518082600560200280838360005b838110156100db5780820151818401526020810190506100c0565b5050505090500191505060405180910390f35b61011a6004803603602081101561010457600080fd5b810190808035906020019092919050505061024f565b604051808273ffffffffffffffffffffffffffffffffffffffff1673ffffffffffffffffffffffffffffffffffffffff16815260200191505060405180910390f35b600080831015801561016f575060048311155b61017857600080fd5b816000846005811061018657fe5b0160006101000a81548173ffffffffffffffffffffffffffffffffffffffff021916908373ffffffffffffffffffffffffffffffffffffffff16021790555082905092915050565b6101d6610282565b6000600580602002604051908101604052809291908260058015610245576020028201915b8160009054906101000a900473ffffffffffffffffffffffffffffffffffffffff1673ffffffffffffffffffffffffffffffffffffffff16815260200190600101908083116101fb575b5050505050905090565b6000816005811061025c57fe5b016000915054906101000a900473ffffffffffffffffffffffffffffffffffffffff1681565b6040518060a0016040528060059060208202803883398082019150509050509056fea265627a7a7231582000a612fa509fbd130d1762fe8ef3b52d32ddcb5beda95abdba75cc7b5146a8df64736f6c63430005100032",
  "source": "pragma solidity ^0.5.9 ;\n\ncontract CatAdoption{\n    address[5] public adopters ;\n\n    function adopt(uint catId, address adopter) public returns(uint){\n        require(catId>=0 && catId<=4) ;\n        adopters[catId] = adopter ;\n        return catId ;\n    }\n\n    function getAdopters() public view returns(address[5] memory){\n        return adopters ;\n    }\n}",
  "sourcePath": "C:\\Users\\DELL\\Desktop\\Flutter-Blockchain-main\\Flutter-Blockchain-main\\cat_adoption\\contracts\\CatAdoption.sol",
  "compiler": {
    "name": "solc",
    "version": "0.5.16+commit.9c3226ce.Emscripten.clang"
  },
  "schemaVersion": "3.4.11",
  "updatedAt": "2022-12-17T08:01:59.422Z",
  "networkType": "ethereum",
  "devdoc": {
    "methods": {}
  },
  "userdoc": {
    "methods": {}
  }
}